S01700004763634170706C69636174696F6E342E7372656358
S11300000C9434000C943E000C943E000C943E007E
S11300100C943E000C943E000C943E000C943E0064
S11300200C943E000C943E000C943E000C943E0054
S11300300C943E000C943E000C943E000C943E0044
S11300400C943E000C943E000C943E000C943E0034
S11300500C943E000C943E000C943E000C943E0024
S11300600C943E000C943E0011241FBECFEFD8E048
S1130070DEBFCDBF0E9440000C9454000C940000DD
S113008084E084B985E080938100E4E8F0E024E032
S1130090329BFECF1182108225B9808191818632F4
S10F00A09642D8F315B8F4CFF894FFCFC3
S9030000FC
