S01700004763634170706C69636174696F6E332E7372656359
S11300000C9434000C943E000C943E000C943E007E
S11300100C943E000C943E000C943E000C943E0064
S11300200C943E000C943E000C943E000C943E0054
S11300300C943E000C943E000C943E000C943E0044
S11300400C943E000C943E000C943E000C943E0034
S11300500C943E000C943E000C943E000C943E0024
S11300600C943E000C943E0011241FBECFEFD8E048
S1130070DEBFCDBF0E9440000C9467000C940000CA
S11300808FEF84B985E080938100E4E8F0E0118289
S1130090108282E085B9808191818B3B9D4049F437
S11300A095B182E0892785B9109285001092840069
S11300B00BC080918400909185008732994021F48F
S11300C0109285001092840080E090E00895F894E6
S10500D0FFCF5C
S9030000FC
